:020000040800F2
:1000000000500020C1150008D1130008D7130008C4
:10001000DD130008E3130008E913000800000000E6
:10002000000000000000000000000000EF130008C6
:10003000FB13000800000000071400081314000858
:100040000916000809160008091600080916000814
:100050000916000809160008091600080916000804
:1000600009160008091600080916000809160008F4
:1000700009160008091600080916000809160008E4
:1000800009160008091600080916000809160008D4
:1000900009160008091600080916000809160008C4
:1000A00009160008091600080916000809160008B4
:1000B00009160008091600080916000809160008A4
:1000C0000916000809160008091600080916000894
:1000D000091600082114000809160008091600086E
:1000E000091600080916000809160008000000009B
:1000F0000000000000000000000000000000000000
:0C01000000000000000000005FF808F1A3
:1001100010B5054C237833B9044B13B10448AFF341
:1001200000800123237010BDD401002000000000D6
:10013000BC76000808B5034B1BB103490348AFF375
:10014000008008BD00000000D8010020BC76000837
:1001500010F8012B11F8013B012A28BF9A42F7D071
:10016000D01A7047034613F8012B002AFBD1181A46
:100170000138704781F0004102E000BF83F0004386
:1001800030B54FEA41044FEA430594EA050F08BF32
:1001900090EA020F1FBF54EA000C55EA020C7FEAF6
:1001A000645C7FEA655C00F0E2804FEA5454D4EB73
:1001B0005555B8BF6D420CDD2C4480EA020281EA3D
:1001C000030382EA000083EA010180EA020281EA75
:1001D0000303362D88BF30BD11F0004F4FEA0131C7
:1001E0004FF4801C4CEA113102D0404261EB4101D6
:1001F00013F0004F4FEA03334CEA133302D052425C
:1002000063EB430394EA050F00F0A780A4F1010417
:10021000D5F1200E0DDB02FA0EFC22FA05F2801851
:1002200041F1000103FA0EF2801843FA05F3594137
:100230000EE0A5F120050EF1200E012A03FA0EFCB6
:1002400028BF4CF0020C43FA05F3C01851EBE371E0
:1002500001F0004507D54FF0000EDCF1000C7EEBFD
:1002600000006EEB0101B1F5801F1BD3B1F5001F3B
:100270000CD349085FEA30004FEA3C0C04F101045A
:100280004FEA445212F5800F80F09A80BCF1004F83
:1002900008BF5FEA500C50F1000041EB045141EA05
:1002A000050130BD5FEA4C0C404141EB0101013CCE
:1002B00028BFB1F5801FE9D291F0000F04BF0146BD
:1002C0000020B1FA81F308BF2033A3F10B03B3F18F
:1002D00020020CDA0C3208DD02F1140CC2F10C021F
:1002E00001FA0CF021FA02F10CE002F11402D8BF7D
:1002F000C2F1200C01FA02F120FA0CFCDCBF41EA49
:100300000C019040E41AA2BF01EB0451294330BD17
:100310006FEA04041F3C1CDA0C340EDC04F11404F4
:10032000C4F1200220FA04F001FA02F340EA0300CB
:1003300021FA04F345EA030130BDC4F10C04C4F111
:10034000200220FA02F001FA04F340EA03002946F1
:1003500030BD21FA04F0294630BD94F0000F83F43B
:10036000801306BF81F480110134013D4EE77FEA1E
:10037000645C18BF7FEA655C29D094EA050F08BF6A
:1003800090EA020F05D054EA000C04BF194610464B
:1003900030BD91EA030F1EBF0021002030BD5FEA8F
:1003A000545C05D14000494128BF41F0004130BDB7
:1003B00014F580043CBF01F5801130BD01F000450B
:1003C00045F0FE4141F470014FF0000030BD7FEA7E
:1003D000645C1ABF194610467FEA655C1CBF0B4679
:1003E000024650EA013406BF52EA033591EA030F90
:1003F00041F4002130BD00BF90F0000F04BF002188
:10040000704730B54FF4806404F132044FF00005BA
:100410004FF0000150E700BF90F0000F04BF002133
:10042000704730B54FF4806404F1320410F0004599
:1004300048BF40424FF000013EE700BF42004FEA94
:10044000E2014FEA31014FEA02701FBF12F07F4311
:1004500093F07F4F81F06051704732F07F4208BFC8
:10046000704793F07F4F04BF41F40021704730B5CF
:100470004FF4607401F0004521F000411CE700BF1B
:1004800050EA010208BF704730B54FF000050AE09E
:1004900050EA010208BF704730B511F0004502D59F
:1004A000404261EB41014FF4806404F132045FEAA1
:1004B000915C3FF4D8AE4FF003025FEADC0C18BF4A
:1004C00003325FEADC0C18BF033202EBDC02C2F13C
:1004D000200300FA03FC20FA02F001FA03FE40EACE
:1004E0000E0021FA02F11444BDE600BF70B54FF0D2
:1004F000FF0C4CF4E06C1CEA11541DBF1CEA1355B0
:1005000094EA0C0F95EA0C0F00F0DEF82C4481EA17
:10051000030621EA4C5123EA4C5350EA013518BF37
:1005200052EA033541F4801143F4801338D0A0FB24
:1005300002CE4FF00005E1FB02E506F00042E0FBD1
:1005400003E54FF00006E1FB03569CF0000F18BFD7
:100550004EF0010EA4F1FF04B6F5007F64F540747F
:1005600004D25FEA4E0E6D4146EB060642EAC62112
:1005700041EA55514FEAC52040EA5E504FEACE2E7F
:10058000B4F1FD0C88BFBCF5E06F1ED8BEF1004F82
:1005900008BF5FEA500E50F1000041EB045170BDFE
:1005A00006F0004646EA010140EA020081EA030142
:1005B000B4EB5C04C2BFD4EB0C0541EA045170BD3E
:1005C00041F480114FF0000E013C00F3AB8014F1B8
:1005D000360FDEBF002001F0004170BDC4F1000401
:1005E000203C35DA0C341BDC04F11404C4F1200582
:1005F00000FA05F320FA04F001FA05F240EA0200DD
:1006000001F0004221F0004110EBD37021FA04F612
:1006100042EB06015EEA430E08BF20EAD37070BDCC
:10062000C4F10C04C4F1200500FA04F320FA05F02B
:1006300001FA04F240EA020001F0004110EBD3702D
:1006400041F100015EEA430E08BF20EAD37070BD9D
:10065000C4F1200500FA05F24EEA020E20FA04F376
:1006600001FA05F243EA020321FA04F001F0004125
:1006700021FA04F220EA020000EBD3705EEA430E96
:1006800008BF20EAD37070BD94F0000F0FD101F0C5
:100690000046400041EB010111F4801F08BF013CFE
:1006A000F7D041EA060195F0000F18BF704703F03C
:1006B0000046520043EB030313F4801F08BF013DC3
:1006C000F7D043EA0603704794EA0C0F0CEA13557F
:1006D00018BF95EA0C0F0CD050EA410618BF52EA39
:1006E0004306D1D181EA030101F000414FF000003F
:1006F00070BD50EA410606BF1046194652EA43064D
:1007000019D094EA0C0F02D150EA013613D195EAC0
:100710000C0F05D152EA03361CBF104619460AD108
:1007200081EA030101F0004141F0FE4141F4700112
:100730004FF0000070BD41F0FE4141F4780170BD02
:1007400070B54FF0FF0C4CF4E06C1CEA11541DBF67
:100750001CEA135594EA0C0F95EA0C0F00F0A7F869
:10076000A4EB050481EA030E52EA03354FEA013196
:1007700000F088804FEA03334FF0805545EA1313A9
:1007800043EA12634FEA022245EA111545EA106571
:100790004FEA00260EF000419D4208BF964244F108
:1007A000FD0404F5407402D25B084FEA3202B61A27
:1007B00065EB03055B084FEA32024FF480104FF4FB
:1007C000002CB6EB020E75EB030E22BFB61A75466F
:1007D00040EA0C005B084FEA3202B6EB020E75EB02
:1007E000030E22BFB61A754640EA5C005B084FEA6A
:1007F0003202B6EB020E75EB030E22BFB61A754637
:1008000040EA9C005B084FEA3202B6EB020E75EB41
:10081000030E22BFB61A754640EADC0055EA060E02
:1008200018D04FEA051545EA16754FEA06164FEA45
:10083000C30343EA52734FEAC2025FEA1C1CC0D1F1
:1008400011F4801F0BD141EA00014FF000004FF07E
:10085000004CB6E711F4801F04BF01430020B4F13F
:10086000FD0C88BFBCF5E06F3FF6AFAEB5EB030CF7
:1008700004BFB6EB020C5FEA500C50F1000041EBF4
:10088000045170BD0EF0004E4EEA113114EB5C04C1
:10089000C2BFD4EB0C0541EA045170BD41F4801194
:1008A0004FF0000E013C90E645EA060E8DE60CEA9C
:1008B000135594EA0C0F08BF95EA0C0F3FF43BAFB9
:1008C00094EA0C0F0AD150EA01347FF434AF95EA70
:1008D0000C0F7FF425AF104619462CE795EA0C0F54
:1008E00006D152EA03353FF4FDAE1046194622E721
:1008F00050EA410618BF52EA43067FF4C5AE50EAFB
:1009000041047FF40DAF52EA43057FF4EBAE12E7EA
:100910004FF0FF3C06E000BF4FF0010C02E000BFCB
:100920004FF0010C4DF804CD4FEA410C7FEA6C5CAE
:100930004FEA430C18BF7FEA6C5C1BD001B050EA51
:10094000410C0CBF52EA430C91EA030F02BF90EA3C
:10095000020F0020704710F1000F91EA030F58BFFB
:10096000994208BF90422CBFD8176FEAE37040F05D
:10097000010070474FEA410C7FEA6C5C02D150EAFB
:10098000013C07D14FEA430C7FEA6C5CD6D152EAB6
:10099000033CD3D05DF8040B704700BF844610467B
:1009A00062468C461946634600E000BF01B5FFF77A
:1009B000B7FF002848BF10F1000F01BD4DF808ED4A
:1009C000FFF7F4FF0CBF012000205DF808FB00BF1B
:1009D0004DF808EDFFF7EAFF34BF012000205DF875
:1009E00008FB00BF4DF808EDFFF7E0FF94BF0120C2
:1009F00000205DF808FB00BF4DF808EDFFF7CEFFC3
:100A000094BF012000205DF808FB00BF4DF808ED01
:100A1000FFF7C4FF34BF012000205DF808FB00BFD2
:100A20004FEA410C7FEA6C5C02D150EA013C0AD1EA
:100A30004FEA430C7FEA6C5C02D152EA033C02D1DC
:100A40004FF0000070474FF0010070474FEA41023D
:100A500012F5001215D211D56FF47873B3EB625210
:100A600012D94FEAC12343F0004343EA505311F037
:100A7000004F23FA02F018BF404270474FF00000C9
:100A8000704750EA013005D111F0004008BF6FF007
:100A9000004070474FF00000704700BF4A0011D27D
:100AA00012F5001211D20DD56FF47873B3EB6252C8
:100AB0000ED44FEAC12343F0004343EA505323FAD4
:100AC00002F070474FF00000704750EA013002D149
:100AD0004FF0FF3070474FF00000704738B50546C3
:100AE0000C460022002328462146FFF771FF28B953
:100AF00028462146BDE8384000F00AB8284604F1EF
:100B0000004100F005F8404261EB410138BD00BFF3
:100B1000D0B500220B4B06460F46FFF7E7FCFFF768
:100B2000BDFF0446FFF768FC0022074BFFF7DEFC21
:100B300002460B4630463946FFF720FBFFF7AEFF73
:100B40002146D0BD0000F03D0000F04180B582B0EC
:100B500000AF03460A46FB711346BB71FB790122C5
:100B600002FA03F39BB2BA791946034801F0F4F88C
:100B700000BF0837BD4680BD0008014080B584B085
:100B800000AF0346FB710023FB6009E0FB68DBB2AA
:100B9000FA7911461846FFF7D9FFFB680133FB606D
:100BA000FB68072BF2DD00BF00BF1037BD4680BDDC
:100BB00080B400AF00BFBD4680BC704780B500AFB9
:100BC000304B9B79012B02D0022B10D058E02D4BDB
:100BD000DB79002B0CBF01230023DBB21A46294B23
:100BE000DA71284BDB791846FFF7C8FF48E0254B40
:100BF00093F90930DBB2234AD27911461846FFF740
:100C0000A5FF204B93F90930DAB21E4B93F9083057
:100C1000DBB21344DBB25AB21A4B5A72194B93F936
:100C20000930072B13DD174BFF221A72154B0022D8
:100C3000DA71144B93F90930DAB2124B93F9083098
:100C4000DBB21344DBB25AB20E4B5A7217E00D4BB3
:100C500093F90930002B12DA0A4B01221A72094B60
:100C60000122DA71074B93F90930DAB2054B93F997
:100C70000830DBB21344DBB25AB2024B5A7200BFE7
:100C800000BF80BDF001002080B500AF0B4B9B7909
:100C9000002B10D000F012FD0246084B1B68D31A3F
:100CA000064A9288934206D3FFF788FF00F006FDBC
:100CB0000346024A136000BF80BD00BFF001002060
:100CC00080B483B000AF0346FB80074B01229A71CA
:100CD000054AFB889380044B0022DA7100BF0C3771
:100CE000BD4680BC704700BFF001002080B483B0D7
:100CF00000AF0346FB800A4B02229A71084AFB8828
:100D00009380074B00225A72054B01221A72044B42
:100D10000122DA7100BF0C37BD4680BC704700BFAE
:100D2000F001002080B500AFFFF742FF024B002228
:100D30009A7100BF80BD00BFF001002080B485B073
:100D400000AF0346FB71094BFB60FB79002B01D11F
:100D5000074BFB60FB79012B01D1064BFB60FB6865
:100D600018461437BD4680BC704700BF00002041C4
:100D70000000A441CDCC4A4280B584B000AF786079
:100D80001A4BFB601A497868FFF7E2F90346002B1B
:100D900014D00EE0FB681B6819467868FFF7D8F995
:100DA0000346002B02D1FB685B681AE0FB6808333E
:100DB000FB60FB685B68002BECD111E00D4B01225E
:100DC0001A7009E0FB685B685B6819460A4800F026
:100DD0008FF8FB680833FB60FB685B68002BF1D180
:100DE000002318461037BD4680BD00BFF0780008CC
:100DF000D8760008FC010020E076000880B590B0AD
:100E000000AF78600B46FB70002387F83F301C4929
:100E1000786803F08FFEB8630FE097F83F305A1CF4
:100E200087F83F209B0040333B44BA6B43F8342C97
:100E30001349002003F07EFEB863BB6B002BECD19E
:100E4000FB681846FFF798FF78637B6B002B08D090
:100E50007B6B1B6897F83F1007F10C021046984710
:100E60000AE0084B1B78002B03D1074800F040F83C
:100E700002E0044B00221A7000BF4037BD4680BD1F
:100E8000E8760008FC010020EC76000880B584B00C
:100E900000AF78600B46FB70FB78012B03D811483C
:100EA00000F026F81BE0FB78022B03D90E4800F077
:100EB0001FF814E07B6804331B68184602F0EFF952
:100EC0000346FB73FB7B1846FFF738FF03461846C3
:100ED000FFF7B4FA02460B46044800F009F8103751
:100EE000BD4680BDF47700080C7800082078000823
:100EF0000FB490B59BB000AF07F17C033B603B1D86
:100F00003A68B96F184603F0F1FD0A4B1C683B1DA7
:100F10001846FFF727F903469AB2391D6423204685
:100F200001F092FB00BF6C37BD46BDE8904004B0B5
:100F3000704700BF0002002080B483B000AF78602B
:100F4000034A7B68136000BF0C37BD4680BC704706
:100F50000002002080B584B000AF78600B46FB70C3
:100F6000FB78022B03D81948FFF7C2FF2AE0FB7871
:100F7000032B03D91648FFF7BBFF23E07B6804333C
:100F80001B68184602F08BF90346FB737B68083335
:100F90001B68184602F083F90346BB81FB7B012BDB
:100FA00002D0022B05D009E0BB891846FFF788FE66
:100FB00008E0BB891846FFF799FE03E00548FFF7F4
:100FC00097FF00BF1037BD4680BD00BF34780008D2
:100FD0004C7800086078000880B582B000AF786077
:100FE0000B46FB70FB78012B03D80C48FFF780FF02
:100FF00011E0FB78022B03D90948FFF779FF0AE0DB
:101000007B6804331B68184602F046F902460B461B
:101010000448FFF76DFF0837BD4680BD7C780008A7
:1010200094780008A878000880B582B000AF786096
:101030000B46FB70FB78012B03D80C48FFF758FFD9
:1010400011E0FB78022B03D90948FFF751FF0AE0B2
:101050007B6804331B68184602F01EF902460B46F3
:101060000448FFF745FF0837BD4680BD7C7800087F
:1010700094780008BC78000880B483B000AF0346C1
:10108000FB71FB790A2B09D10C4B1B781A460C4BD0
:10109000002199540B4B01221A7009E0074B1B7871
:1010A0005A1CD1B2054A11701946054AFB795354AE
:1010B00000BF0C37BD4680BC704700BF68020020EF
:1010C000040200206902002080B500AF084B1B78A5
:1010D000012B0BD1074B1B7819460748FFF78EFEF3
:1010E000034B00221A70034B00221A7000BF80BD10
:1010F00069020020680200200402002080B582B04E
:1011000000AF78607B681A68084B1B689A4209D167
:10111000074B1B781846FFF7AFFF0122044903482D
:1011200001F015FB00BF0837BD4680BD6C020020F2
:10113000B402002080B500AF00F068FA00F018F8A3
:1011400000F07CF800F050F801220749074801F050
:10115000FEFA0648FFF7F0FEFFF7E4FDFFF7B4FFE5
:10116000FFF792FDFAE700BFB40200206C020020F6
:1011700080B590B000AF07F118032822002118466F
:1011800003F0BEFC3B1D00221A605A609A60DA60D0
:101190001A610223BB610123BB621023FB6200239F
:1011A0007B6307F11803184600F0EEFD0346002BA1
:1011B00001D000F081F80F237B600023BB60002387
:1011C000FB6000233B6100237B613B1D002118462F
:1011D00001F05CF80346002B01D000F06DF800BF71
:1011E0004037BD4680BD000080B500AF114B124AAC
:1011F0001A60104B4FF4E1325A600E4B00229A6095
:101200000C4B0022DA600B4B00221A61094B0C22B6
:101210005A61084B00229A61064B0022DA610548A8
:1012200001F0C2F90346002B01D000F045F800BFE1
:1012300080BD00BF6C0200200038014080B586B040
:1012400000AF07F1080300221A605A609A60DA6062
:10125000174B9B69164A43F020039361144B9B691B
:1012600003F020037B607B68114B9B69104A43F0BD
:10127000040393610E4B9B6903F004033B603B68DE
:101280000022FF210B4800F067FDFF23BB60012314
:10129000FB6000233B6102237B6107F108031946D1
:1012A000044800F0D5FB00BF1837BD4680BD00BF25
:1012B000001002400008014080B400AF72B600BFC9
:1012C000FEE7000080B485B000AF154B9B69144A5F
:1012D00043F001039361124B9B6903F00103BB6070
:1012E000BB680F4BDB690E4A43F08053D3610C4B54
:1012F000DB6903F080537B607B680A4B5B68FB60B3
:10130000FB6823F0E063FB60FB6843F00073FB6065
:10131000044AFB68536000BF1437BD4680BC704769
:10132000001002400000014080B588B000AF786036
:1013300007F1100300221A605A609A60DA607B6835
:101340001B68204A934239D11F4B9B691E4A43F4C4
:10135000804393611C4B9B6903F48043FB60FB68F3
:10136000194B9B69184A43F004039361164B9B6920
:1013700003F00403BB60BB684FF400733B610223BE
:101380007B610323FB6107F1100319460F4800F04E
:101390005FFB4FF480633B6100237B610023BB61F3
:1013A00007F110031946094800F052FB0022012101
:1013B000252000F064FA252000F07DFA00BF2037D8
:1013C000BD4680BD003801400010024000080140C9
:1013D00080B400AFFEE780B400AFFEE780B400AF9A
:1013E000FEE780B400AFFEE780B400AFFEE780B454
:1013F00000AF00BFBD4680BC704780B400AF00BFE7
:10140000BD4680BC704780B400AF00BFBD4680BC05
:10141000704780B500AF00F03FF900BF80BD00000D
:1014200080B500AF024801F0B7F900BF80BD00BF32
:101430006C02002080B400AF01231846BD4680BC7A
:10144000704780B582B000AF7860396003F018FC57
:10145000034616221A604FF0FF3318460837BD4680
:1014600080BD80B582B000AF78604FF0FF31786802
:10147000FFF7E7FFFEE780B586B000AFF860B96020
:101480007A6000237B610AE0AFF300800146BB680D
:101490005A1CBA60CAB21A707B6901337B617A69DF
:1014A0007B689A42F0DB7B6818461837BD4680BDE2
:1014B00080B586B000AFF860B9607A6000237B61C8
:1014C00009E0BB685A1CBA601B781846AFF300806D
:1014D0007B6901337B617A697B689A42F1DB7B68C7
:1014E00018461837BD4680BD80B483B000AF786021
:1014F0004FF0FF3318460C37BD4680BC704780B4B0
:1015000083B000AF786039603B684FF400525A6096
:10151000002318460C37BD4680BC704780B483B0AA
:1015200000AF7860012318460C37BD4680BC704779
:1015300080B485B000AFF860B9607A6000231846C7
:101540001437BD4680BC704780B586B000AF786068
:10155000144A154BD31A7B617B693B61134B1B68A3
:10156000002B02D1114B124A1A60104B1A687B688B
:1015700013443A699A4207D203F082FB03460C22D5
:101580001A604FF0FF3309E0084B1B68FB60074B04
:101590001A687B681344054A1360FB6818461837BD
:1015A000BD4680BD0050002000040000B8020020AD
:1015B0001004002080B400AF00BFBD4680BC70475F
:1015C000FFF7F8FF0B480C490C4A002302E0D458FF
:1015D000C4500433C4188C42F9D3094A094C00237F
:1015E00001E013600432A242FBD303F04FFBFFF78C
:1015F000A1FD704700000020D4010020D07D00082C
:10160000D40100200C040020FEE7000080B500AFEC
:10161000084B1B68074A43F010031360032000F0D7
:1016200023F90F2000F008F8FFF74CFE00231846BE
:1016300080BD00BF0020024080B582B000AF78605E
:10164000124B1A68124B1B7819464FF47A73B3FB8E
:10165000F1F3B2FBF3F3184600F03BF90346002B1D
:1016600001D001230EE07B680F2B0AD80022796895
:101670004FF0FF3000F003F9064A7B681360002347
:1016800000E0012318460837BD4680BD0000002059
:10169000080000200400002080B400AF054B1B7838
:1016A0001A46054B1B681344034A136000BFBD462E
:1016B00080BC704708000020BC02002080B400AF4E
:1016C000024B1B681846BD4680BC7047BC02002018
:1016D00080B485B000AF78607B6803F00703FB60DF
:1016E0000C4BDB68BB60BA684FF6FF031340BB606E
:1016F000FB681A02BB68134343F0BF6343F4003333
:10170000BB60044ABB68D36000BF1437BD4680BCD1
:10171000704700BF00ED00E080B400AF044BDB6811
:101720001B0A03F007031846BD4680BC704700BF84
:1017300000ED00E080B483B000AF0346FB7197F981
:101740000730002B0BDBFB7903F01F02064997F9EA
:1017500007305B09012000FA02F241F8232000BFA4
:101760000C37BD4680BC704700E100E080B483B018
:1017700000AF03463960FB7197F90730002B0ADB95
:101780003B68DAB20C4997F907301201D2B20B4428
:1017900083F800230AE03B68DAB20849FB7903F0DA
:1017A0000F03043B1201D2B20B441A7600BF0C3770
:1017B000BD4680BC704700BF00E100E000ED00E0E6
:1017C00080B489B000AFF860B9607A60FB6803F05C
:1017D0000703FB61FB69C3F10703042B28BF042344
:1017E000BB61FB690433062B02D9FB69033B00E0B4
:1017F00000237B614FF0FF32BB6902FA03F3DA4347
:10180000BB681A407B699A404FF0FF317B6901FA4F
:1018100003F3D9437B680B40134318462437BD4676
:1018200080BC704780B582B000AF78607B68013BB8
:10183000B3F1807F01D301230FE00A4A7B68013BAB
:1018400053600F214FF0FF30FFF790FF054B002250
:101850009A60044B07221A60002318460837BD46D9
:1018600080BD00BF10E000E080B582B000AF7860BE
:101870007868FFF72DFF00BF0837BD4680BD80B5F3
:1018800086B000AF0346B9607A60FB7300237B61CA
:10189000FFF742FF78617A68B9687869FFF790FFCF
:1018A000024697F90F3011461846FFF75FFF00BF59
:1018B0001837BD4680BD80B582B000AF0346FB71CE
:1018C00097F907301846FFF735FF00BF0837BD46C8
:1018D00080BD80B582B000AF78607868FFF7A2FF66
:1018E000034618460837BD4680BD80B485B000AFBA
:1018F00078600023FB737B6893F82130DBB2022B06
:1019000008D07B6804229A637B68002283F8202039
:10191000012320E07B681B681A687B681B6822F043
:101920000E021A607B681B681A687B681B6822F0CD
:1019300001021A607B681A6C7B68DB6B012101FA7B
:1019400002F25A607B68012283F821207B68002222
:1019500083F82020FB7B18461437BD4680BC7047B7
:1019600080B584B000AF78600023FB737B6893F888
:101970002130DBB2022B05D07B6804229A6301235D
:10198000FB7351E07B681B681A687B681B6822F058
:101990000E021A607B681B681A687B681B6822F05D
:1019A00001021A607B681B68224A934229D07B6837
:1019B0001B68214A934222D07B681B681F4A9342CE
:1019C0001AD07B681B681E4A934212D07B681B6842
:1019D0001C4A93420AD07B681B681B4A934202D17F
:1019E0004FF480130EE04FF080730BE04FF4803320
:1019F00008E04FF4805305E04FF4807302E01023B9
:101A000000E00123114A53607B68012283F8212002
:101A10007B68002283F820207B685B6B002B03D05F
:101A20007B685B6B78689847FB7B18461037BD4630
:101A300080BD00BF080002401C0002403000024090
:101A400044000240580002406C0002400000024086
:101A500080B48BB000AF7860396000237B620023D4
:101A60003B6269E101227B6A02FA03F3FB613B6896
:101A70001B68FA691340BB61BA69FB699A4240F07E
:101A800058813B685B689A4A93425ED0984A934279
:101A900075D8984A934258D0964A93426FD8964A3E
:101AA000934252D0944A934269D8944A93424CD07C
:101AB000924A934263D8924A934246D0904A9342C4
:101AC0005DD8122B2AD8122B59D801A252F823F034
:101AD0004B1B0008251B0008371B0008791B00085A
:101AE0007F1B00087F1B00087F1B00087F1B00086E
:101AF0007F1B00087F1B00087F1B00087F1B00085E
:101B00007F1B00087F1B00087F1B00087F1B00084D
:101B10007F1B00082D1B0008411B0008794A9342D7
:101B200013D02CE03B68DB683B6229E03B68DB6854
:101B300004333B6224E03B68DB6808333B621FE010
:101B40003B68DB680C333B621AE03B689B68002B08
:101B500002D104233B6213E03B689B68012B05D153
:101B600008233B627B68FA691A6109E008233B623B
:101B70007B68FA695A6103E000233B6200E000BF22
:101B8000BB69FF2B01D87B6801E07B6804337B6174
:101B9000BB69FF2B02D87B6A9B0002E07B6A083B93
:101BA0009B003B617B691A680F213B6901FA03F3D3
:101BB000DB431A40396A3B6901FA03F31A437B6934
:101BC0001A603B685B6803F08053002B00F0B18023
:101BD0004D4B9B694C4A43F0010393614A4B9B690F
:101BE00003F00103BB60BB68484A7B6A9B08023371
:101BF00052F82330FB607B6A03F003039B000F2243
:101C000002FA03F3DB43FA681340FB607B68404A47
:101C1000934213D07B683F4A93420DD07B683E4A83
:101C2000934207D07B683D4A934201D1032306E0EB
:101C3000042304E0022302E0012300E000237A6A87
:101C400002F0030292009340FA681343FB602F49AD
:101C50007B6A9B080233FA6841F823203B685B6883
:101C600003F48013002B06D02D4B9A682C49BB69D6
:101C700013438B6006E02A4B9A68BB69DB43284913
:101C800013408B603B685B6803F40013002B06D0A5
:101C9000234BDA682249BB691343CB6006E0204B33
:101CA000DA68BB69DB431E491340CB603B685B6865
:101CB00003F40033002B06D0194B5A681849BB694E
:101CC00013434B6006E0164B5A68BB69DB4314496B
:101CD00013404B603B685B6803F48033002B21D0DA
:101CE0000F4B1A680E49BB6913430B6021E000BF1C
:101CF00000003210000031100000221000002110FE
:101D000000001210000011100010024000000140FD
:101D100000080140000C0140001001400014014087
:101D2000000401400B4B1A68BB69DB4309491340AF
:101D30000B607B6A01337B623B681A687B6A22FA1C
:101D400003F3002B7FF48EAE00BF00BF2C37BD46DF
:101D500080BC70470004014080B483B000AF78605D
:101D60000B467B8013467B707B78002B03D07A88F0
:101D70007B681A6103E07B881A047B681A6100BFE4
:101D80000C37BD4680BC704780B586B000AF786028
:101D90007B68002B01D1012372E27B681B6803F092
:101DA0000103002B00F08780924B5B6803F00C036B
:101DB000042B0CD08F4B5B6803F00C03082B12D163
:101DC0008C4B5B6803F48033B3F5803F0BD1894BB8
:101DD0001B6803F40033002B6CD07B685B68002B1E
:101DE00068D101234CE27B685B68B3F5803F06D184
:101DF000804B1B687F4A43F4803313602EE07B687E
:101E00005B68002B0CD17B4B1B687A4A23F4803330
:101E10001360784B1B68774A23F4802313601DE01E
:101E20007B685B68B3F5A02F0CD1724B1B68714ABD
:101E300043F4802313606F4B1B686E4A43F4803376
:101E400013600BE06B4B1B686A4A23F4803313600A
:101E5000684B1B68674A23F4802313607B685B68C8
:101E6000002B13D0FFF72AFC386108E0FFF726FCAF
:101E700002463B69D31A642B01D9032300E25D4B70
:101E80001B6803F40033002BF0D014E0FFF716FCBE
:101E9000386108E0FFF712FC02463B69D31A642B55
:101EA00001D90323ECE1534B1B6803F40033002BEF
:101EB000F0D100E000BF7B681B6803F00203002B39
:101EC00063D04C4B5B6803F00C03002B0BD0494BE9
:101ED0005B6803F00C03082B1CD1464B5B6803F4D2
:101EE0008033002B16D1434B1B6803F00203002BF9
:101EF00005D07B681B69012B01D00123C0E13D4B5C
:101F00001B6823F0F8027B685B69DB0039491343E7
:101F10000B603AE07B681B69002B20D0364B012216
:101F20001A60FFF7CBFB386108E0FFF7C7FB0246FA
:101F30003B69D31A022B01D90323A1E12D4B1B6866
:101F400003F00203002BF0D02A4B1B6823F0F802A9
:101F50007B685B69DB00274913430B6015E0264B68
:101F600000221A60FFF7AAFB386108E0FFF7A6FB22
:101F700002463B69D31A022B01D9032380E11D4B92
:101F80001B6803F00203002BF0D17B681B6803F091
:101F90000803002B3AD07B689B69002B19D0174BA4
:101FA00001221A60FFF78AFB386108E0FFF786FB21
:101FB00002463B69D31A022B01D9032360E10D4B82
:101FC0005B6A03F00203002BF0D0012000F0CEFA90
:101FD0001CE00A4B00221A60FFF770FB38610FE02B
:101FE000FFF76CFB02463B69D31A022B08D9032387
:101FF00046E100BF0010024000004242800442421D
:10200000924B5B6A03F00203002BE9D17B681B68EB
:1020100003F00403002B00F0A6800023FB758B4B1C
:10202000DB6903F08053002B0DD1884BDB69874AB5
:1020300043F08053D361854BDB6903F08053BB6071
:10204000BB680123FB75824B1B6803F48073002B74
:1020500018D17F4B1B687E4A43F480731360FFF7EF
:102060002DFB386108E0FFF729FB02463B69D31AD4
:10207000642B01D9032303E1754B1B6803F48073C0
:10208000002BF0D07B68DB68012B06D16F4B1B6AFD
:102090006E4A43F0010313622DE07B68DB68002B7E
:1020A0000CD16A4B1B6A694A23F001031362674B28
:1020B0001B6A664A23F0040313621CE07B68DB683A
:1020C000052B0CD1614B1B6A604A43F00403136279
:1020D0005E4B1B6A5D4A43F0010313620BE05B4BEE
:1020E0001B6A5A4A23F001031362584B1B6A574A72
:1020F00023F0040313627B68DB68002B15D0FFF725
:10210000DDFA38610AE0FFF7D9FA02463B69D31AD3
:1021100041F28832934201D90323B1E04B4B1B6A51
:1021200003F00203002BEED014E0FFF7C7FA38618A
:102130000AE0FFF7C3FA02463B69D31A41F288323C
:10214000934201D903239BE0404B1B6A03F0020337
:10215000002BEED1FB7D012B05D13C4BDB693B4ACB
:1021600023F08053D3617B68DB69002B00F087800C
:10217000364B5B6803F00C03082B61D07B68DB698E
:10218000022B46D1334B00221A60FFF797FA3861D1
:1021900008E0FFF793FA02463B69D31A022B01D9F4
:1021A00003236DE0294B1B6803F00073002BF0D173
:1021B0007B681B6AB3F5803F08D1244B5B6823F42E
:1021C00000327B689B68214913434B601F4B5B685F
:1021D00023F474127B68196A7B685B6A0B431B49A2
:1021E00013434B601B4B01221A60FFF767FA3861FB
:1021F00008E0FFF763FA02463B69D31A022B01D9C4
:1022000003233DE0114B1B6803F00073002BF0D05B
:1022100035E0104B00221A60FFF750FA386108E0F1
:10222000FFF74CFA02463B69D31A022B01D903236C
:1022300026E0064B1B6803F00073002BF0D11EE074
:102240007B68DB69012B07D1012319E000100240F4
:1022500000700040600042420B4B5B68FB60FB6813
:1022600003F480327B681B6A9A4206D1FB6803F450
:1022700070127B685B6A9A4201D0012300E0002360
:1022800018461837BD4680BD0010024080B584B0A6
:1022900000AF786039607B68002B01D10123D0E06A
:1022A0006A4B1B6803F007033A689A4210D9674BE0
:1022B0001B6823F0070265493B6813430B60634BBF
:1022C0001B6803F007033A689A4201D00123B8E083
:1022D0007B681B6803F00203002B20D07B681B681F
:1022E00003F00403002B05D0594B5B68584A43F4B4
:1022F000E06353607B681B6803F00803002B05D084
:10230000534B5B68524A43F460535360504B5B68D5
:1023100023F0F0027B689B684D4913434B607B6858
:102320001B6803F00103002B40D07B685B68012B26
:1023300007D1474B1B6803F40033002B15D1012351
:102340007FE07B685B68022B07D1414B1B6803F081
:102350000073002B09D1012373E03D4B1B6803F090
:102360000203002B01D101236BE0394B5B6823F0A2
:1023700003027B685B68364913434B60FFF79EF9A5
:10238000F8600AE0FFF79AF90246FB68D31A41F2B7
:102390008832934201D9032353E02D4B5B6803F04D
:1023A0000C027B685B689B009A42EBD1274B1B6851
:1023B00003F007033A689A4210D2244B1B6823F0BB
:1023C000070222493B6813430B60204B1B6803F054
:1023D00007033A689A4201D0012332E07B681B6808
:1023E00003F00403002B08D0194B5B6823F4E06270
:1023F0007B68DB68164913434B607B681B6803F0FE
:102400000803002B09D0124B5B6823F460527B68F1
:102410001B69DB000E4913434B6000F021F80246B4
:102420000B4B5B681B0903F00F030A49CB5C22FAD4
:1024300003F3094A1360094B1B681846FFF7FCF8C1
:10244000002318461037BD4680BD00BF0020024063
:10245000001002401879000800000020040000204D
:1024600080B487B000AF0023FB600023BB60002373
:102470007B6100237B6000233B611E4B5B68FB603C
:10248000FB6803F00C03042B02D0082B03D027E0D9
:10249000194B3B6127E0FB689B0C03F00F03174AC5
:1024A000D35C7B60FB6803F48033002B10D0114BAE
:1024B0005B685B0C03F00103114AD35CBB607B6873
:1024C0000D4A03FB02F2BB68B2FBF3F37B6104E04D
:1024D0007B680C4A02FB03F37B617B693B6102E092
:1024E000054B3B6100BF3B6918461C37BD4680BCAD
:1024F000704700BF0010024000127A0030790008D7
:102500004079000800093D0080B400AF024B1B6811
:102510001846BD4680BC70470000002080B500AF63
:10252000FFF7F2FF0246054B5B681B0A03F0070347
:102530000349CB5C22FA03F3184680BD0010024029
:102540002879000880B500AFFFF7DEFF0246054B93
:102550005B68DB0A03F007030349CB5C22FA03F351
:10256000184680BD001002402879000880B485B06C
:1025700000AF78600A4B1B680A4AA2FB03235B0A80
:102580007A6802FB03F3FB6000BFFB685A1EFA6027
:10259000002BF9D100BF00BF1437BD4680BC704787
:1025A00000000020D34D621080B582B000AF78608B
:1025B0007B68002B01D1012342E07B6893F8413016
:1025C000DBB2002B06D17B68002283F840207868BC
:1025D000FEF7AAFE7B68242283F841207B681B68F3
:1025E000DA687B681B6822F40052DA60786800F0D1
:1025F000C5FD7B681B681A697B681B6822F49042E2
:102600001A617B681B685A697B681B6822F02A0282
:102610005A617B681B68DA687B681B6842F4005269
:10262000DA607B6800225A647B68202283F84120AC
:102630007B68202283F842207B6800225A630023B3
:1026400018460837BD4680BD80B58AB002AFF86035
:10265000B9603B601346FB8000237B61FB6893F805
:102660004130DBB2202B6DD1BB68002B02D0FB8840
:10267000002B01D1012366E0FB6800225A64FB684D
:10268000212283F84120FFF719F87861FB68FA8866
:102690009A84FB68FA88DA84FB689B68B3F5805FEC
:1026A00008D1FB681B69002B04D10023FB61BB68C8
:1026B000BB6103E0BB68FB610023BB612AE03B68B0
:1026C00000937B6900228021F86800F014FB034628
:1026D000002B01D0032336E0FB69002B0BD1BB6933
:1026E0001B881A46FB681B68C2F308025A60BB6964
:1026F0000233BB6107E0FB691A78FB681B685A600C
:10270000FB690133FB61FB68DB8C9BB2013B9AB236
:10271000FB68DA84FB68DB8C9BB2002BCFD13B6873
:1027200000937B6900224021F86800F0E4FA034638
:10273000002B01D0032306E0FB68202283F8412010
:10274000002300E0022318462037BD4680BD80B537
:1027500084B000AFF860B9601346FB80FB6893F863
:102760004230DBB2202B12D1BB68002B02D0FB8899
:10277000002B01D101230BE0FB6800221A63FB88C8
:102780001A46B968F86800F024FB034600E002230B
:1027900018461037BD4680BD80B5BAB000AF78602E
:1027A0007B681B681B68C7F8E4307B681B68DB68C4
:1027B000C7F8E0307B681B685B69C7F8DC30002332
:1027C000C7F8D8300023C7F8D430D7F8E43003F086
:1027D0000F03C7F8D830D7F8D830002B0FD1D7F86F
:1027E000E43003F02003002B09D0D7F8E03003F0E9
:1027F0002003002B03D0786800F001FC5BE2D7F8DF
:10280000D830002B00F0DE80D7F8DC3003F0010375
:10281000002B06D1D7F8E03003F49073002B00F0C2
:10282000D180D7F8E43003F00103002B0BD0D7F8A8
:10283000E03003F48073002B05D07B685B6C43F0C1
:1028400001027B685A64D7F8E43003F00403002BDC
:102850000BD0D7F8DC3003F00103002B05D07B68E8
:102860005B6C43F002027B685A64D7F8E43003F0F3
:102870000203002B0BD0D7F8DC3003F00103002B50
:1028800005D07B685B6C43F004027B685A64D7F820
:10289000E43003F00803002B11D0D7F8E03003F048
:1028A0002003002B05D1D7F8DC3003F00103002B07
:1028B00005D07B685B6C43F008027B685A647B68D8
:1028C0005B6C002B00F0F281D7F8E43003F02003BA
:1028D000002B08D0D7F8E03003F02003002B02D003
:1028E000786800F08CFB7B681B685B6903F0400331
:1028F000002B14BF01230023DBB2C7F8D4307B6860
:102900005B6C03F00803002B03D1D7F8D430002B05
:102910004FD0786800F096FA7B681B685B6903F01B
:102920004003002B41D07B681B681433C7F89C30F0
:10293000D7F89C3053E8003FC7F89830D7F8983064
:1029400023F04003C7F8D0307B681B681433D7F8F6
:10295000D020C7F8A820C7F8A430D7F8A410D7F81B
:10296000A82041E80023C7F8A030D7F8A030002BFA
:10297000D9D17B68DB6B002B13D07B68DB6B7E4A85
:102980005A637B68DB6B1846FEF7EAFF0346002BB1
:1029900016D07B68DB6B5B6B7A68D26B104698470E
:1029A0000EE0786800F093F90AE0786800F08FF99B
:1029B00006E0786800F08BF97B6800225A6475E1C4
:1029C00000BF73E17B681B6B012B40F04F81D7F890
:1029D000E43003F01003002B00F04881D7F8E0301A
:1029E00003F01003002B00F041810023BB607B68E3
:1029F0001B681B68BB607B681B685B68BB60BB684F
:102A00007B681B685B6903F04003002B00F0B68015
:102A10007B68DB6B1B685B68A7F8BE30B7F8BE301D
:102A2000002B00F045817B689B8DB7F8BE209A4251
:102A300080F03E817B68B7F8BE20DA857B68DB6B6F
:102A40009B69202B00F088807B681B680C33C7F8DB
:102A50008830D7F8883053E8003FC7F88430D7F87B
:102A6000843023F48073C7F8B8307B681B680C335C
:102A7000D7F8B820C7F89420C7F89030D7F890104E
:102A8000D7F8942041E80023C7F88C30D7F88C3071
:102A9000002BD9D17B681B6814337B677B6F53E8AD
:102AA000003F3B673B6F23F00103C7F8B4307B68FE
:102AB0001B681433D7F8B420C7F88020FB67F96F80
:102AC000D7F8802041E80023BB67BB6F002BE1D122
:102AD0007B681B6814333B663B6E53E8003FFB6525
:102AE000FB6D23F04003C7F8B0307B681B681433DC
:102AF000D7F8B020FA66BB66B96EFA6E41E80023DB
:102B00007B667B6E002BE3D17B68202283F842201A
:102B10007B6800221A637B681B680C33FB64FB6CC8
:102B200053E8003FBB64BB6C23F01003C7F8AC3024
:102B30007B681B680C33D7F8AC20BA657B65796D70
:102B4000BA6D41E800233B653B6D002BE3D17B6808
:102B5000DB6B1846FEF7C9FE7B6802225A637B686E
:102B60009A8D7B68DB8D9BB2D31A9BB2194678682D
:102B700000F0B6F89CE000BF092F00087B689A8D32
:102B80007B68DB8D9BB2D31AA7F8CE307B68DB8DD8
:102B90009BB2002B00F08E80B7F8CE30002B00F0F7
:102BA00089807B681B680C33BB63BB6B53E8003FB9
:102BB0007B637B6B23F49073C7F8C8307B681B681A
:102BC0000C33D7F8C8207A643B64396C7A6C41E8DE
:102BD0000023FB63FB6B002BE3D17B681B68143382
:102BE0007B627B6A53E8003F3B623B6A23F0010350
:102BF000C7F8C4307B681B681433D7F8C4203A6325
:102C0000FB62F96A3A6B41E80023BB62BB6A002BA6
:102C1000E3D17B68202283F842207B6800221A637C
:102C20007B681B680C333B613B6953E8003FFB60EA
:102C3000FB6823F01003C7F8C0307B681B680C33B7
:102C4000D7F8C020FA61BB61B969FA6941E800238D
:102C50007B617B69002BE3D17B6802225A63B7F862
:102C6000CE301946786800F03BF823E0D7F8E4301E
:102C700003F08003002B09D0D7F8E03003F0800385
:102C8000002B03D0786800F053F914E0D7F8E43053
:102C900003F04003002B0ED0D7F8E03003F04003E0
:102CA000002B08D0786800F092F904E000BF02E041
:102CB00000BF00E000BFE837BD4680BD80B483B0F0
:102CC00000AF786000BF0C37BD4680BC704780B451
:102CD00083B000AF786000BF0C37BD4680BC704742
:102CE00080B483B000AF78600B467B8000BF0C37A8
:102CF000BD4680BC704780B590B000AFF860B96049
:102D00003B601346FB7150E0BB6CB3F1FF3F4CD00E
:102D1000BB6C002B07D0FEF7D1FC02463B68D31AF0
:102D2000BA6C9A4241D2FB681B680C33BB62BB6A27
:102D300053E8003F7B627B6A23F4D073FB63FB683C
:102D40001B680C33FA6B7A633B63396B7A6B41E82F
:102D50000023FB62FB6A002BE5D1FB681B68143380
:102D60007B617B6953E8003F3B613B6923F00103D2
:102D7000BB63FB681B681433BA6B3A62FB61F96989
:102D80003A6A41E80023BB61BB69002BE5D1FB68CF
:102D9000202283F84120FB68202283F84220FB6830
:102DA000002283F8402003230FE0FB681B681A68A9
:102DB000BB681340BA689A420CBF01230023DBB200
:102DC0001A46FB799A429FD0002318464037BD46E9
:102DD00080BD80B485B000AFF860B9601346FB8059
:102DE000FB68BA689A62FB68FA889A85FB68FA8879
:102DF000DA85FB6800225A64FB68222283F84220AD
:102E0000FB681B69002B07D0FB681B68DA68FB684E
:102E10001B6842F48072DA60FB681B685A69FB68C1
:102E20001B6842F001025A61FB681B68DA68FB68A4
:102E30001B6842F02002DA60002318461437BD46B2
:102E400080BC704780B495B000AF78607B681B6829
:102E50000C337B637B6B53E8003F3B633B6B23F49A
:102E60009073FB647B681B680C33FA6C3A64FB63F9
:102E7000F96B3A6C41E80023BB63BB6B002BE5D1D7
:102E80007B681B6814333B623B6A53E8003FFB617D
:102E9000FB6923F00103BB647B681B681433BA6CC5
:102EA000FA62BB62B96AFA6A41E800237B627B6A14
:102EB000002BE5D17B681B6B012B19D17B681B684C
:102EC0000C33FB60FB6853E8003FBB60BB6823F03A
:102ED00010037B647B681B680C337A6CBA617B617E
:102EE0007969BA6941E800233B613B69002BE5D170
:102EF0007B68202283F842207B6800221A6300BF8F
:102F00005437BD4680BC704780B584B000AF786050
:102F10007B685B6AFB60FB680022DA85FB68002245
:102F2000DA84F868FFF7D3FE00BF1037BD4680BDD6
:102F300080B485B000AF78607B6893F84130DBB235
:102F4000212B3ED17B689B68B3F5805F14D17B68F1
:102F50001B69002B10D17B681B6AFB60FB681B8818
:102F60001A467B681B68C2F308025A607B681B6ABA
:102F70009A1C7B681A6208E07B681B6A591C7A6895
:102F800011621A787B681B685A607B68DB8C9BB285
:102F9000013B9BB27A681946D184002B0FD17B6824
:102FA0001B68DA687B681B6822F08002DA607B6845
:102FB0001B68DA687B681B6842F04002DA60002315
:102FC00000E0022318461437BD4680BC704780B528
:102FD00082B000AF78607B681B68DA687B681B682A
:102FE00022F04002DA607B68202283F84120786872
:102FF000FFF764FE002318460837BD4680BD80B544
:103000008CB000AF78607B6893F84230DBB2222B43
:1030100040F0AE807B689B68B3F5805F17D17B681A
:103020001B69002B13D10023FB627B689B6ABB6288
:103030007B681B685B689BB2C3F308039AB2BB6AE8
:103040001A807B689B6A9A1C7B689A6226E07B6880
:103050009B6AFB620023BB627B689B68B3F5805F61
:1030600007D07B689B68002B0AD17B681B69002B0B
:1030700006D17B681B685B68DAB2FB6A1A7008E0ED
:103080007B681B685B68DBB203F07F03DAB2FB6A24
:103090001A707B689B6A5A1C7B689A627B68DB8D1E
:1030A0009BB2013B9BB27A681946D185002B5DD15A
:1030B0007B681B68DA687B681B6822F02002DA6094
:1030C0007B681B68DA687B681B6822F48072DA60B0
:1030D0007B681B685A697B681B6822F001025A6191
:1030E0007B68202283F842207B6800225A637B6839
:1030F0001B6B012B35D17B6800221A637B681B6830
:103100000C337B617B6953E8003F3B613B6923F0F3
:1031100010037B627B681B680C337A6A3A62FB613E
:10312000F9693A6A41E80023BB61BB69002BE5D12C
:103130007B681B681B6803F01003102B0AD1002367
:10314000FB607B681B681B68FB607B681B685B68B7
:10315000FB60FB687B689B8D19467868FFF7C0FDB4
:1031600002E07868FDF7CAFF002302E0002300E0D8
:10317000022318463037BD4680BD000080B584B0BC
:1031800000AF78607B681B681B6923F440517B6843
:10319000DA687B681B680A431A617B689A687B68F7
:1031A0001B691A437B685B691343BB607B681B68C0
:1031B000DB6823F4B05323F00C037A681268B96813
:1031C0000B43D3607B681B685B6923F440717B68A9
:1031D0009A697B681B680A435A617B681B682C4AA2
:1031E000934203D1FFF7AEF9F86002E0FFF796F9DA
:1031F000F860FA6813469B0013449A001A447B68EF
:103200005B689B00B2FBF3F3224AA2FB03235B093A
:103210001901FA6813469B0013449A001A447B680C
:103220005B689B00B2FBF3F21A4BA3FB02035B0942
:10323000642000FB03F3D31A1B013233154AA2FBAF
:1032400003235B0903F0F0031944FA6813469B005B
:1032500013449A001A447B685B689B00B2FBF3F24C
:103260000C4BA3FB02035B09642000FB03F3D31A9E
:103270001B013233074AA2FB03235B0903F00F0251
:103280007B681B680A449A6000BF1037BD4680BD4A
:10329000003801401F85EB51002100F019BE0A22C1
:1032A000002100F09FBE2DE9F0410F46904603F04B
:1032B00097FB04460D46B8F1000F11D0C7F30A532F
:1032C000C3F16B03002B0BDD00241B0503F17F55BD
:1032D00005F5401522462B46FDF708F904460D4634
:1032E00020462946BDE8F0812DE9F04F9FB01792A6
:1032F000002204461A920D464FF000084FF00009D4
:103300000A46199211782B294AD038D80D2932D87B
:10331000082932D800293BD000220E92199E32781B
:10332000302A40F0B280727802F0DF02582A6ED163
:1033300002930E9B204601931AAB00938C4A1BAB61
:1033400019A902F029FC10F00F07054605D0062F39
:1033500028D10023013619960E93179B002B40F0BD
:10336000A0850E9BCBB1424609F100431046194699
:103370001FB0BDE8F08F2029CED10132C1E72D2941
:10338000CAD101210E91511C19915278002AC5D140
:10339000179B1995002B40F0828542464B46E5E786
:1033A0000021EFE71A9A3AB135211CA803F004FC7A
:1033B00020461A9902F0E8FF013F1B9A042F06D815
:1033C000DFE807F014031D201400DDE91C89E9057E
:1033D00048BF49F0004929F000431B0D1B05002B95
:1033E000BBD101F04DFC22230360B6E702F2334269
:1033F000DDE91C8323F4801343EA0259E7E7DFF891
:103400007491E4E76FF000494FF0FF38DFE7199B54
:103410005A1C19925B78302BF9D0002B9DD00123D8
:103420004FF0000A0A22D3460593199BCDF828A035
:103430000B9319980678A6F13003D9B2092926D939
:1034400001224D4901F064FB002830D000203246B3
:1034500003465E460890652A01D0452A13D11EB95D
:10346000059A024394D00026199D6A1C19926A7825
:103470002B2A74D02D2A78D04FF0000CA2F1300105
:1034800009297FD9199500279EE00023C8E7BBF1E1
:10349000080FD8BF0A9900F10100D6BF02FB013323
:1034A00002FB0A3A0A930BF1010B1990C1E7199B31
:1034B0005A1C19925A78BBF1000F37D05E4608901B
:1034C000A2F13003092B12D90123C4E7199B013063
:1034D0005A1C19925A78302AF8D0A2F13103082BDD
:1034E00000F2E484089000200646199B0B93303AC2
:1034F00000F1010314D0089900EB060C194408915F
:1035000033460A21634513D13318082B06F101060F
:1035100006441ADC0A230A9903FB01230A930023B9
:10352000199A1846511C19915278C9E75846D2E7A2
:10353000082B03F1010303DC0A9F4F430A97E1E7DD
:10354000102BD8BF01FB0AFADCE7102EDCBF0A23E0
:1035500003FB0A2AE3E700230893012380E74FF0E7
:10356000000CAA1C1992AA7888E74FF0010CF8E722
:10357000447900080000F07F42790008199A511C34
:1035800019915278302AF9D0A2F1310108293FF679
:103590007AAF303A0992199A0C92199A571C1997D6
:1035A0005278A2F1300EBEF1090F38D90C997F1A6A
:1035B000082F44F61F6703DC09998F42A8BF0F4606
:1035C000BCF1000F00D07F42002E4FD1059901437E
:1035D0007FF4C3AE002B7FF4DBAE692A29D026DC52
:1035E000492A26D04E2A7FF4D3AE9A4919A802F070
:1035F00015FD00283FF4CCAE199B1B78282B2FD14A
:1036000095491CAA19A802F01DFD052828D11D9B6B
:10361000DDF8708043F0FF4949F4E0099DE60A2196
:10362000099F01FB0721A1F130020992B5E76E2A3B
:10363000D9E78A4919A802F0F1FC00283FF4A8AEA6
:10364000199B8749013B19A8199302F0E7FC10B9AF
:10365000199B013319934FF00008DFF808927CE6BC
:10366000814801F057FB8046894676E6089BBBF10E
:10367000000F08BFB346FB1A102E0A98354609936F
:10368000A8BF1025FCF7B8FE092E8046894613DD39
:10369000764B03EBC50353E91223FCF727FF804663
:1036A00050468946FCF7A8FE02460B46404649466E
:1036B000FCF766FD804689460F2E36DC099B002B01
:1036C0003FF44BAE22DD162B09DC6849424601EB84
:1036D000C3014B46D1E90001FCF708FFC3E7099A93
:1036E000C6F12503934220DB604CC6F10F0604EBC4
:1036F000C6014246D1E900014B46FCF7F7FE099BA3
:103700009E1B04EBC604D4E90023E5E7099B1633AE
:103710000BDB089B4046DF1B544B494603EBC707B6
:10372000D7E90023FDF70CF89DE7099B751B1D44A5
:10373000002D70DD15F00F030AD04C49424601EB15
:10374000C301D1E900014B46FCF7D0FE8046894613
:1037500035F00F054DD0B5F59A7F22DD0026B34632
:103760000B96089622234FF00008DFF8F8902360AC
:103770000B9B002B3FF4F1AD20461A9902F004FE9A
:103780002046089902F000FE5946204602F0FCFD52
:1037900020460B9902F0F8FD3146204602F0F4FD78
:1037A000DBE5334B40460593002349469A462D11ED
:1037B000012D21DC0BB1804689462D49A9F15479B0
:1037C00001EBCA014246D1E900014B46FCF78EFEEF
:1037D000244B0A460B40274980468B42BED8A1F5B0
:1037E00080118B4286BF4FF0FF38DFF88C9002F1DA
:1037F0005479002305937BE0EA0705D5059BD3E9BF
:103800000023FCF773FE0123059A0AF1010A08322E
:103810006D100592CCE7ECD06D4215F00F020AD086
:10382000124B404603EBC2034946D3E90023FCF7A1
:1038300087FF804689462D11DBD01F2D1EDD002617
:10384000B3460B96089622234FF000084FF000096C
:1038500023608DE7A67A0008587900089E7A000850
:10386000857B00080000F07F817B0008E07C000879
:10387000B87C00080000A07CFFFFEF7F15F010036C
:1038800018BF6A234046059349460023DFF8C8A2C3
:10389000EA0704D5DAE90023FCF728FE01236D10BE
:1038A0000AF1080AF4D10BB180468946059BBBB1E9
:1038B000C9F30A52C2F16B03002B494610DD1F2BDE
:1038C00040F32881342BD8BF4FF0FF334FF000086E
:1038D000CFBF4FF05C79C2F14B02934003EA01097C
:1038E0000022002340464946FDF768F80028A6D18B
:1038F0000A9B5A460093204633460B9902F0ACFDD2
:103900000B9000283FF42AAF0026099A089B002A52
:10391000A3EB0703A8BF0023B346129322EAE27386
:1039200016930B9B2046596802F0EEFC0890002885
:103930003FF418AF0B9B0C301A6903F10C010232F3
:10394000920001F0D8F91CAB01931BAB00934246E7
:103950004B462046CDF83080CDF83C9003F0A8F8D7
:103960001A9000283FF4FEAE0121204602F00CFE22
:10397000834600283FF4F6AE1B9F1C9A002FABBF76
:10398000129B169B07EB030ADD1B059BA8BF169D28
:10399000A7EB03071744714B07F1FF37B8BFDDF8FA
:1039A00048A09F42C2F1360280F2C780DB1B1F2B6A
:1039B0004FF00101A2EB030200F3B38001FA03F31D
:1039C0001393002310930AEB0207059BBA45154495
:1039D0001D445346A8BF3B46AB42A8BF2B46002B15
:1039E000C2BFFF1AED1AAAEB030A129B002B17DDC8
:1039F00059461A46204602F085FE834600283FF4C9
:103A0000B1AE01461A9A204602F0D4FD0A90002871
:103A10003FF4A8AE20461A9902F0B6FC0A9B1A930E
:103A2000002F00F38F80099B002B08DD2046169A9B
:103A3000089902F067FE089000283FF493AE002D2D
:103A400008DD2A462046089902F0B6FE08900028B4
:103A50003FF488AEBAF1000F08DD594652462046C1
:103A600002F0AAFE834600283FF47CAE2046089A66
:103A70001A9902F029FF064600283FF473AE00258C
:103A8000C3685946C5600A9302F002FFA8426BDA88
:103A90000A9B53EA080340F08F80C9F31303002BFD
:103AA00040F08A8029F000431B0D1B05B3F1D66F4F
:103AB00040F28280736913B93369012B7CDD314692
:103AC0000122204602F078FE5946064602F0E0FE4A
:103AD000002871DD05994B46214A002900F08D80B0
:103AE00002EA0901B1F1D66F00F38780B1F15C7F82
:103AF0007FF7A9AE404649461A4B0022FCF7F6FC78
:103B0000174B80460B408946002B7FF435AE2223AD
:103B1000236031E64FF0FF3202FA03F303EA0808AC
:103B2000DEE6C7F17F4707F57F0707F57B47E237FA
:103B300001FA07F31093139145E700231093012333
:103B4000139340E73A4620461A9902F035FE1A9040
:103B500000287FF468AF05E67079000802FCFFFFDB
:103B60000000F07F00005039CA4665D10A9AC9F3B7
:103B7000130352B39E4A93422AD1059B4146FBB19F
:103B80009C4B4FF0FF3209EA0303B3F1D46F1AD80C
:103B90001B0DC3F16B0302FA03F3994218D1964B44
:103BA0009A4502D101313FF4DDAD4FF00008914B51
:103BB0000AEA030303F58019059B002B9AD1DBE584
:103BC0004FF0FF33E9E71346E7E753EA080381D0F4
:103BD000109BE3B113EA0A0FEED00A9B4046494618
:103BE000059AC3B1FFF75FFB02460B460C980F998D
:103BF000FCF7C6FA80468946DEE71340A3F580133A
:103C00006FEA13594FF0FF386FEA0959D4E7139B55
:103C100013EA080FE0E7FFF746FB02460B460C9855
:103C20000F99FCF7ABFA0022002380468946FCF787
:103C3000C5FE0028C0D006E65946304602F08EFF89
:103C400002460B46CDE9102300224FF08043FCF7DB
:103C5000C9FE00286FD00A9B002B7CD1B8F1000F61
:103C600059D1C9F31303002B7BD1DDE910010022E8
:103C7000624BFCF7ADFE00285AD1DDE910010022AD
:103C80005F4BFCF733FC05460F4607F100430695F2
:103C90000793DDE90623CDE91023564B554A0AEA7E
:103CA00003031393574B0AEA02029A4240F0B08092
:103CB000AAF154794046494602F092FEDDE9062316
:103CC000FCF714FC42464B46FCF75AFADFF824A1F5
:103CD0004D4A01EA0A0A9245804648D90F9A464B56
:103CE0009A4203D10C9B01333FF43CAD4FF0FF38B7
:103CF000DFF8049120461A9902F046FB2046089905
:103D000002F042FB5946204602F03EFB3146204677
:103D100002F03AFB05E6B8F1010F03D1B9F1000F4B
:103D20003FF491AD0022394B0A9DCDE9062316E000
:103D30000A9D334FA9E7324B0022DDE91001FCF761
:103D4000D5FB0A9B05460F46002B9ED002460B462C
:103D5000CDE906239DE70022284BCDE90623274F16
:103D600097E70022294B4546CDE90623F7E701F105
:103D70005479059BCA46002BBCD129F00043139A05
:103D80001B0D1B059A42B5D128463946FCF7A6FE05
:103D9000FCF77EFB02460B4628463946FCF7EEF957
:103DA0000B460246C9F3130ACDE90C230A9B4AEAE3
:103DB000080A5AEA030A6CD009A3D3E90023FCF7E6
:103DC00007FE00287FF4D8AC07A3D3E90023DDE980
:103DD0000C01FCF71BFE00288CD0CDE4AFF3008073
:103DE0009535A094FFFFDF3F35E5AF350000E03F9C
:103DF000FFFF0F000000F07FFFFFEF7F0000F03FAC
:103E00000000E03F0000E07FFFFF9F7C0000F0BF6C
:103E1000059B33B3139BB3F1D46F22D828A3D3E906
:103E2000002328463946FCF7DDFDA0B13946284677
:103E3000FCF734FE012838BF0120FCF7DDFA0A9BAD
:103E400005460F4603BB01F1004314901593DDE9CD
:103E50001423CDE91023119B139A03F1D6639B1A07
:103E600011930C980F99DDE9108902F0B9FD024613
:103E70000B4640464946FCF739FB0C9A0F9BFCF772
:103E80007FF98046894674E702460B46CDE9142344
:103E9000DDE70DA3D3E90023FCF79AFD9BE70023A0
:103EA0000E93199B179A1360FFF75BBA652A3FF4CC
:103EB00052AB452A3FF44FAB0123FFF787BB00BF4E
:103EC0000000C0FFFFFFDF419535A094FFFFCF3F0B
:103ED0000A4601460248034B0068FFF705BA00BFD7
:103EE000D001002018000020012B2DE9F047864664
:103EF000904601D0242B06D900F0C2FE16230360A1
:103F00000020BDE8F0870D4635482A4615F8014BDC
:103F1000065D16F00806F8D12D2C2ED101262C783E
:103F2000951C002B57D0102B09D1302C07D12A78A3
:103F300002F0DF02582A49D110236C7802350022A2
:103F400006F1004C0CF1FF3CBCFBF3F9104603FBFF
:103F500019CAA4F13007092F14D83C46A34220DD2A
:103F6000571C07D0814519D301D1A24516DB012288
:103F700000FB034015F8014BEBE72B2C04BF2C781A
:103F8000951CCEE7A4F14107192F01D8373CE5E78E
:103F9000A4F16107192F04D8573CDFE74FF0FF3237
:103FA000E8E7531C08D122236046CEF80030B8F170
:103FB000000FA6D0691E06E006B14042B8F1000F1E
:103FC0009FD0002AF6D1C8F800109AE73024002BC1
:103FD000B5D10823B3E7302CA9D00A23AFE700BF3F
:103FE0009979000813460A46014602480068FFF71F
:103FF0007BBF00BFD0010020002B2DE9F0471F46FA
:10400000BBBF03F100431F4600232D2388B0144695
:10401000129A109D1370149BDDF84CA023F0200819
:10402000B8F1460F05D0B8F1450F00D10135022394
:1040300000E0032307AA049206AACDE902A2CDE973
:10404000003522463B4600F013FFB8F1470F064605
:1040500002D1119BDB0722D5B8F1460F06EB05090B
:1040600010D13378302B0AD1002200232046394664
:10407000FCF7A4FC18B9C5F10105CAF80050DAF83C
:10408000003099440022002320463946FCF796FC74
:1040900008B1CDF81C903022079B4B4507D3304622
:1040A000079B159A9B1B136008B0BDE8F087591C4D
:1040B00007911A70F0E70346F7B5002903F8022BC1
:1040C000B6BF2D222B224942092942702ADD0DF16B
:1040D000070217460A2691FBF6F5944606FB1514CF
:1040E00030340CF8014C0C46632C294602F1FF32A7
:1040F000F1DC3031ACF1020402F8011C2246411C13
:10410000BA420AD30DF10902A2EB0C02BC4288BFED
:1041100000221344181A03B0F0BD12F8015B01F835
:10412000015FEDE7302330318370C170031DF1E78B
:104130002DE9F04F91B00C46DDF8688016461F4619
:10414000054600F053FD036818460993FCF70AF88A
:1041500000230E93D8F800300A90073323F00703AA
:1041600003F1080294F81890D4F800B0C8F80020C1
:10417000D3E900A852464346C4E9122328F000437D
:104180000B934FF0FF3250469C4B0B99FCF748FCC9
:1041900070BB4FF0FF325046984B0B99FCF722FC56
:1041A00030BB0022002350464146FCF711FC10B101
:1041B0002D2384F84330924A924BB9F1470F94BFB4
:1041C0009046984603234FF0000A23612BF0040326
:1041D000236033462146284600970FAA00F0D6F9FF
:1041E000013040F090804FF0FF3011B0BDE8F08F0B
:1041F0005246434650464146FCF712FC48B1B8F1DE
:10420000000FB8BF2D23804AB8BF84F843307F4BDE
:10421000D3E7636809F0DF015A1C42D106236360CB
:10422000002206920EAACDE904920DAA4BF48063F7
:1042300003920DF13302CDE90132236063685246E7
:104240000093284643460B91FFF7D6FE0B99804614
:1042500047290D9908D1C81C02DB6368994240DDEB
:10426000A9F102095FFA89F9B9F1650F1FD84A4629
:10427000013904F150000D91FFF71DFF0E9A82469F
:104280001318012A236102DC2268D20701D5013309
:1042900023619DF83330002B9BD02D2384F84330CD
:1042A00097E74729BCD1002BBAD10123B7E7B9F171
:1042B000660F18D1002963680BDD216113B92268EC
:1042C000D00702D501330B4423614FF0000AA165EA
:1042D000DFE713B92268D20701D50233F4E70123DF
:1042E000F2E74FF067090E9B994205DB23682161D5
:1042F000D807EAD54B1CE7E70029CCBF0122C1F162
:1043000002021344E0E723685A0507D423694246B2
:1043100031462846B84701302BD164E7B9F1650F23
:1043200040F2DD80D4E9120100220023FCF746FBB5
:10433000002833D0012331462846354AB84701309A
:104340003FF451AFDDE90D239A4202DB2368D80721
:104350000FD5DDE9092331462846B84701303FF43F
:1043600042AF4FF0000804F11A090E9B013B434590
:1043700009DC23689B0700F10481E0680F9B9842E9
:10438000B8BF184631E701234A4631462846B847A8
:1043900001303FF428AF08F10108E6E70D9B002B40
:1043A00038DC012331462846194AB84701303FF42A
:1043B0001AAFDDE90D32134302D12368D907D8D5EE
:1043C000DDE9092331462846B84701303FF40BAFF9
:1043D0004FF0000904F11A0A0D9B5B424B4501DCCA
:1043E0000E9B94E70123524631462846B8470130D8
:1043F0003FF4F9AE09F10109EEE700BFFFFFEF7FDF
:10440000997A00089D7A0008A17A0008A57A000828
:10441000A97A00080E9AA36D9A42A8BF1A46002AEC
:10442000914637DC4FF0000B29EAE97904F11A02D2
:10443000D4F858A0AAEB09035B4533DCDDE90D2372
:104440009A423BDB2368DA0738D4DDE90D32A2EB70
:104450000309A2EB0A029145A8BF9146B9F1000FEA
:1044600034DC4FF0000829EAE97904F11A0ADDE9A1
:104470000D239B1AA3EB090343457FF77AAF012372
:10448000524631462846B84701303FF4ACAE08F1F9
:104490000108ECE71346314642462846B84701304A
:1044A000C0D1A0E60123314628460B92B84701301F
:1044B0003FF499AE0B9A0BF1010BB9E73146DDE9F8
:1044C00009232846B8470130BFD18CE64B46314618
:1044D000284608EB0A02B8470130C2D183E60E9A9B
:1044E000012A01DCDB0739D5012342463146284643
:1044F000B84701303FF477AEDDE90923314628465D
:10450000B84701303FF46FAED4E912010022002316
:10451000DDF83890FCF752FAD8B909F1FF3308F109
:10452000010231462846B84701300ED15BE601232F
:104530004A4631462846B84701303FF454AE08F1A8
:1045400001080E9B013B4345F1DC534604F1500248
:10455000DEE64FF0000804F11A09F2E701234246B3
:10456000DFE701234A4631462846B84701303FF489
:104570003AAE08F10108E3680F995B1A4345F0DC95
:10458000FBE64FF0000804F11909F4E72DE9F047C4
:10459000164699468A680B6907469342B8BF134688
:1045A000336091F843200C46DDF820800AB10133D6
:1045B00033602368990642BF33680233336025684D
:1045C00015F0060506D104F1190AE36832689B1A52
:1045D000AB422BDC94F84320131E226818BF012342
:1045E000920630D44946384604F14302C0470130B0
:1045F00023D02368226903F00603042B14BF00258F
:1046000033684FF0000608BFE56804F11A0408BFDC
:10461000ED1A54F8123C08BF25EAE5759342C4BF71
:104620009B1AED18B5421AD1002008E0012352462A
:1046300049463846C047013003D14FF0FF30BDE84E
:10464000F0870135C1E73020E11881F843005A1C9A
:1046500094F845102244023382F84310C2E7012344
:10466000224649463846C0470130E6D00136D9E7F0
:104670002DE9FF470F7E9146782F80460C469A46DB
:104680000C9D01F1430207D8622F0AD8002F00F0D9
:10469000D580582F00F0C18004F1420584F84270A3
:1046A0003AE0A7F16303152BF6D801A151F823F0E6
:1046B000094700081D470008994600089946000868
:1046C00099460008994600081D47000899460008C9
:1046D00099460008994600089946000823480008B2
:1046E00049470008DD470008994600089946000838
:1046F00045480008994600084947000899460008BF
:1047000099460008E54700082B681A1D1B682A60B7
:1047100004F1420584F842300123A0E020682B68B0
:10472000070603F10401296001D51E6803E046066F
:10473000FBD5B3F90060002E03DA2D23764284F80E
:1047400043300A23594812E02B682068191D29605C
:10475000050601D51E6802E04106FBD51E886F2FB5
:104760000CBF08230A235148002184F843106568D0
:10477000002DA8BF2168A560A4BF21F0040121601D
:104780000EB9002D4BD01546B6FBF3F103FB1167B4
:10479000C75D05F8017D3746BB420E46F4D9082BAC
:1047A0000BD12368DE0708D5236961689942DEBF13
:1047B000302305F8013C05F1FF35521B22614B46C1
:1047C00021464046CDF800A003AAFFF7DFFE0130E6
:1047D0004AD14FF0FF3004B0BDE8F087236843F0C2
:1047E000200323607827324884F8457023682968BD
:1047F0001F0651F8046B02D45F0648BFB6B2DF074C
:1048000048BF43F02003296048BF23601EB92368D6
:1048100023F0200323601023A6E72448E4E715468D
:10482000BDE72B682668181D6169286035061B687E
:1048300001D5196002E07006FBD5198000231546EA
:104840002361BCE72B6800211A1D2A601D6862687D
:10485000284600F042FA08B1401B6060636823619B
:10486000002384F84330AAE72A4649464046236994
:10487000D0470130ADD023689B0713D4E068039B79
:104880009842B8BF1846A6E701233246494640463B
:10489000D04701309DD00135E36803995B1AAB42E4
:1048A000F2DCEBE7002504F11906F5E7AB7A000826
:1048B000BC7A0008002310B50446C0E90033C0E903
:1048C0000433836081814366C28183611946082273
:1048D0005C3000F015F90D4B246263620C4BA3624F
:1048E0000C4BE3620C4B23630C4B9C4206D003F150
:1048F0006802944202D0D0339C4205D104F15800A2
:10490000BDE8104000F0E6B910BD00BF394A00080C
:104910005B4A0008934A0008B74A0008C00200201A
:10492000024A0349034800F069B800BF0C000020A8
:10493000117000088401002041680C4B10B59942A9
:10494000044601D002F064FBA168094B994202D0F1
:10495000204602F05DFBE168064B994204D02046F8
:10496000BDE8104002F054BB10BD00BFC0020020E3
:10497000280300209003002010B50B4B0B4C0C4A71
:1049800020461A6004210022FFF794FF04F168001A
:1049900001220921FFF78EFF04F1D0000222BDE8B9
:1049A00010401221FFF786BFF8030020C00200204C
:1049B00021490008014800F08EB900BF0104002021
:1049C000014800F089B900BF0104002010B5044679
:1049D000FFF7F0FF236A1BB1BDE81040FFF7F0BFFF
:1049E000044B2362044B1B68002BF5D1FFF7C4FF77
:1049F000F2E700BF39490008F80300202DE9F84329
:104A00000746884614460026D4E90195B9F1010904
:104A100005D52468002CF7D13046BDE8F883AB8972
:104A2000012B07D9B5F90E30013303D0294638469A
:104A3000C04706436835E9E710B50C46B1F90E10DA
:104A400000F0FAF80028ABBF636DA3891B1823F4AC
:104A50008053ACBF6365A38110BD2DE9F0411F46B3
:104A60008B890546DB050C46164605D50223002238
:104A7000B1F90E1000F0CEF8A389324623F480532A
:104A8000A38128463B46B4F90E10BDE8F04100F082
:104A9000E5B810B50C46B1F90E1000F0BBF8431C98
:104AA000A38915BF606523F4805343F48053A38129
:104AB00018BFA38110BDB1F90E1000F09BB8000023
:104AC00000B59BB0009104916FF0004105910291F7
:104AD00005490391694602F01BF90022009B1A70F8
:104AE0001BB05DF804FB00BF0802FFFF13460A4637
:104AF000014602480068FFF7E3BF00BFD001002075
:104B000003460244934200D1704703F8011BF9E7C2
:104B100010B56AB10139841810F8012B11F8013F62
:104B20009A4203D1A04201D0002AF5D1D01A10BD7B
:104B30001046FCE7164B2DE9F0411F6805467C6CDA
:104B40000E46ECB9502001F019FB0246786420B9FA
:104B50005B21104B104800F0E3F8C0E90044C0E9C5
:104B60000244C0E90444C0E90A44C0E90C44C0E975
:104B70000E44C0E91044C0E91244846104774462E1
:104B8000314628467A6C0123BDE8F04100F006B8B2
:104B9000D0010020CD7A0008E47A0008F0B508B909
:104BA000106888B104460F46204614F8015B17F8D8
:104BB000016B1EB965B92846156005E0B542F6D10E
:104BC000002BF0D114600370F0BD1C460CE015B949
:104BD0000E4614F8013B16F8015BAB42F7D1002BEF
:104BE000F3D0002304F8013C1460EDE7004870475F
:104BF0000801002038B50023054D044608462B6007
:104C0000FCF772FC431C02D12B6803B1236038BD52
:104C1000FC03002038B50446084611460022054D25
:104C20002A601A46FCF784FC431C02D12B6803B1AE
:104C3000236038BDFC03002038B504460846114601
:104C40000022054D2A601A46FCF715FC431C02D1D0
:104C50002B6803B1236038BDFC03002038B504463F
:104C6000084611460022054D2A601A46FCF720FC32
:104C7000431C02D12B6803B1236038BDFC03002024
:104C8000014B1868704700BFD001002070B50026A6
:104C90000C4D0D4C641BA410A64209D102F00EFD70
:104CA00000260A4D0A4C641BA410A64205D170BD13
:104CB00055F8043B98470136EEE755F8043B984712
:104CC0000136F2E7C87D0008C87D0008C87D0008ED
:104CD000CC7D0008704770477047034610B5C9B2D5
:104CE00002449342184601D1002003E004780133C6
:104CF0008C42F6D110BD0A44914200F1FF3300D13D
:104D0000704710B511F8014B914203F8014FF9D1EA
:104D100010BD000000200149704700BF0000F87F6F
:104D20001FB514461A46094B05461B68D8684CB196
:104D3000074BCDE9013400912B46064902F090F96A
:104D400002F0CAF9044B1C46F3E700BFD001002073
:104D5000467B0008537B0008817B00082DE9F74F54
:104D600003690C690746A3427FDB013C00F114058F
:104D700001F1140805EB8403019358F8243055F829
:104D8000242001339A42B2FBF3F64FEA840B08EB7E
:104D9000840931D34FF0000E4046AC46F24650F83D
:104DA000042B93B206FB03E34FEA124E1A0C9BB29C
:104DB00006FB0E22AAEB0303DCF800A04FEA124E1A
:104DC0001FFA8AFA5344DCF800A092B2C2EB1A42EE
:104DD00002EB23429BB243EA024381454FEA224A57
:104DE0004CF8043BDBD255F80B302BB9019B043B4C
:104DF0009D421A462DD33C61384601F049FD0028FA
:104E000023DB29460020013658F8042BD1F800C0D6
:104E100093B2C31A120C1FFA8CF00344C2EB1C426B
:104E200002EB23429BB243EA0243C1454FEA2240D0
:104E300041F8043BE8D255F8242005EB840322B95D
:104E4000043B9D421A460AD33C61304603B0BDE89C
:104E5000F08F1268043B002ACDD1013CC8E71268EC
:104E6000043B002AF0D1013CEBE70020EEE7000014
:104E70002DE9F04F16461F46C46999B00546CDE9A5
:104E80000467DDF8948074B9102001F077F90246C8
:104E9000E86120B9EF21AC4BAC48FFF741FFC0E916
:104EA00001440460C460EB69196851B15A68012378
:104EB00093404A608B60284601F066FA0022EB6955
:104EC0001A603B1EAFBF0023012223F0004305936D
:104ED000A8BFC8F80030DDF814909D4BB8BFC8F8E3
:104EE000002033EA090319D142F20F73249A1360A8
:104EF000C9F31303334300F08985269B53B9954BBF
:104F000023E0954B03930833269A1360039819B056
:104F1000BDE8F08F8F4B03930333F5E7DDE90434ED
:104F2000CDE90C34DDE90C0100220023FBF746FD3E
:104F3000804660B10123249A1360269B002B00F069
:104F40006285864B269A1360013B0393DEE716AB1E
:104F5000019317AB00932846DDE90C2301F0A8FD6F
:104F6000C9F30A548246002C7ED0DDE90C010D9B6A
:104F7000A4F2FF34C3F3130343F07F5343F440130D
:104F8000CDF84C8019460022754BFBF7F7F868A363
:104F9000D3E90023FBF7AAFA67A3D3E90023FBF7C1
:104FA000EFF8064620460F46FBF736FA64A3D3E92E
:104FB0000023FBF79BFA02460B4630463946FBF7C7
:104FC000DFF806460F46FBF741FD0022834600232B
:104FD00030463946FBF7FCFC48B15846FBF71CFA53
:104FE00032463B46FBF7EAFC08B90BF1FF3BBBF14D
:104FF000160F57D8DDE90C015A4B03EBCB03D3E96D
:105000000023FBF7E5FC00284ED000230BF1FF3B0B
:105010000F93169B1B1B5A1E46BFC3F101090023A9
:105020004FF00009099248BF0993BBF1000F3DDB27
:10503000099BCDF838B05B44099300230A93229B67
:10504000092B67D8052BC4BF043B2293229BC8BF02
:105050000024A3F10203D8BF0124032B00F28680B1
:10506000DFE803F02C393756DDE916431C4404F21F
:105070003243202BC1BFC3F1400309FA03F904F204
:10508000124326FA03F3D6BFC3F1200349EA030013
:1050900006FA03F0FBF7B0F90122A1F1F873013C25
:1050A00013926FE70123B3E70F90B2E7CBF1000350
:1050B0000A930023A9EB0B090E93C0E700230B937F
:1050C000239B002B55DC01231A4606930893239259
:1050D0000BE00123F3E700230B93239B5B44069330
:1050E0000133012B0893B8BF012300210422E86992
:1050F00002F114069E4240D94160284601F004F9AD
:10510000039000283CD1024640F2AF11164BC3E693
:105110000123E1E7012400230B9422934FF0FF3396
:105120000022069308931223D1E700BFAFF300805B
:1051300061436F63A787D23FB3C8608B288AC63F9D
:10514000FB799F501344D33FCD7A00088F7B000832
:105150000000F07F8B7B0008827B0008AA7A0008A1
:105160000000F83FE07C0008E77B000801230B9378
:10517000D4E7239B06930893B7E701315200B7E7C2
:10518000EB69039A1A60089B0E2B00F2A880002C92
:1051900000F0A580BBF1000F34DD9A4B0BF00F023D
:1051A00003EBC2031BF4807FD3E90034CDE9103454
:1051B0004FEA2B1416D0DDE90C01934B0327D3E9FA
:1051C0000823FBF7BDFACDE9040104F00F048E4E6D
:1051D00054B9DDE91023DDE90401FBF7B1FACDE9AB
:1051E000040129E00227F2E7E10708D5DDE9100113
:1051F000D6E90023FBF77AF9CDE9100101376410F5
:105200000836E5E700F0A580DDE90C01CBF10004EC
:105210007C4B04F00F0203EBC203D3E90023FBF73E
:1052200065F902270023CDE90401774E2411002CF3
:1052300040F08480002BD2D1DDE90434CDE9103474
:105240000F9B002B00F08780DDE9100100226F4BDF
:10525000FBF7BEFB00287ED0089B002B7BD0069B73
:10526000002B38DDDDE910010022694BFBF73EF928
:10527000CDE90401069C0BF1FF3801373846FBF7F6
:10528000CBF8DDE90423FBF731F90022614BFAF793
:1052900077FFA1F15076CDE910011196002C5DD178
:1052A000DDE9040100225C4BFAF768FF02460B4679
:1052B000CDE904233346109AFBF7A8FB002840F001
:1052C0009582DDE90401109A06F10043FBF780FBAB
:1052D000002840F08982DDE90C34CDE90434179BC5
:1052E000002BC0F25181BBF10E0F00F34D81454BF5
:1052F00003EBCB03D3E90034CDE90634239B002B29
:1053000080F2DA80089B002B00F3D68040F06B829D
:10531000DDE906010022404BFBF7E8F8DDE9042354
:10532000FBF76AFB089C2646002840F041823123A7
:10533000039F0BF1010B07F8013B3DE2E20705D5A6
:10534000D6E90023FBF7D2F80123013764100836B1
:105350006DE7022770E7D846089C8FE70399294B31
:10536000214412910B9903EBC403DDE9106753E963
:105370000223002954D000202849FBF7E1F93B46DD
:105380003246FAF7FBFECDE91001039FDDE9040187
:10539000FBF75CFB0446FBF73FF802460B46DDE9F2
:1053A0000401FAF7EBFE02460B463034CDE9042344
:1053B000DDE9102307F8014BFBF70AFB002873D146
:1053C000DDE9042300201149FAF7D8FEDDE91023B6
:1053D000FBF7FEFA002840F0B680129B9F423FF494
:1053E0007AAFDDE910010022094BFBF77FF80022BC
:1053F000CDE91001DDE90401054BFBF777F8CDE9B4
:105400000401C3E7E07C0008B87C00080000F03F1E
:105410000000244000001C40000014400000E03F59
:1054200030463946FBF762F8129BCDE91001039C28
:105430001493DDE90401FBF709FB1590FAF7ECFF83
:1054400002460B46DDE90401FAF798FE159B064675
:10545000303304F8013B129B0F469C424FF0000290
:1054600024D1DDE91001AF4BFAF78AFE02460B4664
:1054700030463946FBF7CAFA002863D1DDE910232C
:105480000020A849FAF77AFE02460B463046394614
:10549000FBF79EFA00283FF41EAF149F7B1E149367
:1054A00017F8013C302BF8D0C3463BE09E4BFBF78E
:1054B0001DF8CDE90401BCE7039FDDE90489DDE9BE
:1054C000062340464946FBF73BF9FBF7BFFA044683
:1054D000FAF7A2FFDDE90623FBF708F802460B46C0
:1054E00040464946FAF74AFE04F1300607F8016BD8
:1054F000039EDDF820C0BE1BB44502460B4636D1E4
:10550000FAF73EFEDDE9062380468946FBF77EFA80
:1055100058BBDDE9062340464946FBF74FFA08B180
:10552000E30722D45146284600F02EFF0023249A98
:105530003B700BF101031360269B002B3FF4E6AC9C
:105540001F60E3E427463B461F4613F8012D392A26
:1055500007D1039A9A42F7D13022039908F1010842
:105560000A701A7801321A709EE7D846EBE70022DB
:105570006D4BFAF7BBFF0022002380468946FBF7FC
:105580001DFA00289BD0CDE70B9A002A00F0C480BA
:10559000229A012A00F3A880139A002A00F0A08022
:1055A00003F233434F460A9C099A01211A442846C4
:1055B0009944099200F0E8FF06465FB1099B002B71
:1055C00008DDBB42A8BF3B46099AA9EB0309FF1AB5
:1055D000D31A09930A9BF3B10B9B002B00F0A08018
:1055E000002C10DD31462246284601F08BF8524649
:1055F00001460646284600F0DDFF80465146284613
:1056000000F0C2FEC2460A9B1A1B04D0514628462F
:1056100001F078F882460121284600F0B5FF0E9B84
:105620000446002B40F382801A460146284601F0CA
:1056300069F8229B0446012B7BDD4FF000082369AB
:1056400004EB8303186900F051FFC0F12000099BAF
:10565000184410F01F0000F09280C0F12003042BCA
:1056600040F38580099BC0F11C000344814407443A
:105670000993B9F1000F05DD51464A46284601F06D
:105680009BF88246099B002B05DD21461A462846D9
:1056900001F092F804460F9B002B72D02146504631
:1056A00001F0F6F800286CDA002351460A22284659
:1056B00000F08CFE0B9B82460BF1FF3B002B00F0B1
:1056C000AC81002331460A22284600F07FFE069B6B
:1056D0000646002B00F39380229B022B59DC8EE0C0
:1056E000169BC3F136035DE7089B5C1E0A9BA34231
:1056F000BFBF0A9B0E9AE31AD218A8BF1C1B089BB7
:10570000BEBF0A940E920024002BB5BFA9EB03077D
:105710004F460023089B47E74F460A9C0B9E4CE7E9
:105720000A9A73E70000E03F00002440229B012B0F
:1057300018DC049BB3B9059BC3F3130393B9059B12
:1057400023F000431B0D1B057BB14FF00108099BA3
:1057500009F10109013309930E9B002B7FF46FAF10
:10576000012074E74FF00008F6E79846F4E780D090
:10577000099A1C331A4499441F44099279E7034655
:10578000F6E7089B002B34DC229B022B31DD089BC3
:105790000693069B63B921460522284600F016FEB3
:1057A00001460446504601F073F800283FF7BFADAC
:1057B000239B039F6FEA030B4FF000082146284606
:1057C00000F0E2FD002E3FF4ADAEB8F1000F05D0C1
:1057D000B04503D04146284600F0D6FD3146284664
:1057E00000F0D2FD9EE600242646E1E7C3462646A9
:1057F0009DE50B9B002B00F0C880089B0693002FB3
:1058000005DD31463A46284600F0D6FF0646B8F197
:10581000000F5BD02846716800F076FD074628B976
:10582000024640F2EF21814BFFF736BB326906F1A9
:105830000C01023292000C30FFF75DFA012239466A
:10584000284600F0B9FFB0460646039B039A013391
:105850000893069B13440B93049B03F001030A93E4
:10586000089B2146013B50460493FFF777FA4146D7
:10587000069000F13009504601F00AF832460990CE
:105880002146284601F020F8C268074602BB0146BF
:10589000504600F0FDFF0246394628460C9200F0C3
:1058A00073FD229B0C9A089F43EA02010A9B19434D
:1058B00010D1B9F1390F29D0099B002B02DD069BCD
:1058C00003F13109049B83F8009077E73046BAE78B
:1058D0000122E1E7099B002B04DB22990B430A9983
:1058E0000B4320D1002AEDDD51460122284600F06D
:1058F00063FF2146824600F0CBFF002803DCE1D1A4
:1059000019F0010FDED0B9F1390FD8D13923049A3B
:1059100013703B461F4617F8012C013B392A6BD008
:1059200001321A704AE7002A07DDB9F1390FEDD0CC
:10593000049A09F10103137040E7089B0B9A03F8DE
:10594000019C934242D0514600230A22284600F08F
:105950003DFDB04582464FF000034FF00A0241463C
:10596000284607D100F032FD80460646089B0133E9
:10597000089375E700F02AFD3146804600230A228D
:10598000284600F023FD0646F0E7089B0693039F98
:1059900021465046FFF7E2F9039B00F1300907F872
:1059A000019BFA1A069B934207DD514600230A2207
:1059B000284600F00BFD8246EAE7069B4FF0000800
:1059C000002BCCBF1F460127039B1F4451460122D9
:1059D000284600F0F1FE2146824600F059FF0028DB
:1059E00097DC02D119F0010F93D13B461F4613F803
:1059F000012D302AFAD0E1E6039A9A428AD1312366
:105A00000BF1010B97E70A4BFFF79FBA269B002B80
:105A10007FF477AA074BFFF798BA069B002BB6DCFA
:105A2000229B022B3FF7B5AEB1E700BFE77B000832
:105A3000A97A0008827B000838B50546002940D0C5
:105A400051F8043C0C1F002BB8BFE41800F050FCC8
:105A50001C4A136833B9636014602846BDE83840B7
:105A600000F04CBCA34208D9206821188B4201BF2A
:105A700019685B6809182160EDE71A465B680BB18D
:105A8000A342FAD911685018A0420BD120680144F2
:105A9000501883421160E0D118685B6808441060B8
:105AA0005360DAE702D90C232B60D6E7206821186F
:105AB0008B4201BF19685B680918216063605460FC
:105AC000CBE738BD0404002003692DE9F043B3EBB4
:105AD000611F00F114044FEA611246DD11F01F014D
